{
  "contractName": "NevellusSwapFactory",
  "abi": [
    {
      "inputs": [
        {
          "internalType": "address",
          "name": "_feeToSetter",
          "type": "address"
        }
      ],
      "stateMutability": "nonpayable",
      "type": "constructor"
    },
    {
      "anonymous": false,
      "inputs": [
        {
          "indexed": true,
          "internalType": "address",
          "name": "token0",
          "type": "address"
        },
        {
          "indexed": true,
          "internalType": "address",
          "name": "token1",
          "type": "address"
        },
        {
          "indexed": false,
          "internalType": "address",
          "name": "pair",
          "type": "address"
        },
        {
          "indexed": false,
          "internalType": "uint256",
          "name": "",
          "type": "uint256"
        }
      ],
      "name": "PairCreated",
      "type": "event"
    },
    {
      "inputs": [
        {
          "internalType": "uint256",
          "name": "",
          "type": "uint256"
        }
      ],
      "name": "allPairs",
      "outputs": [
        {
          "internalType": "address",
          "name": "",
          "type": "address"
        }
      ],
      "stateMutability": "view",
      "type": "function",
      "constant": true
    },
    {
      "inputs": [],
      "name": "feeTo",
      "outputs": [
        {
          "internalType": "address",
          "name": "",
          "type": "address"
        }
      ],
      "stateMutability": "view",
      "type": "function",
      "constant": true
    },
    {
      "inputs": [],
      "name": "feeToSetter",
      "outputs": [
        {
          "internalType": "address",
          "name": "",
          "type": "address"
        }
      ],
      "stateMutability": "view",
      "type": "function",
      "constant": true
    },
    {
      "inputs": [
        {
          "internalType": "address",
          "name": "",
          "type": "address"
        },
        {
          "internalType": "address",
          "name": "",
          "type": "address"
        }
      ],
      "name": "getPair",
      "outputs": [
        {
          "internalType": "address",
          "name": "",
          "type": "address"
        }
      ],
      "stateMutability": "view",
      "type": "function",
      "constant": true
    },
    {
      "inputs": [],
      "name": "migrator",
      "outputs": [
        {
          "internalType": "address",
          "name": "",
          "type": "address"
        }
      ],
      "stateMutability": "view",
      "type": "function",
      "constant": true
    },
    {
      "inputs": [],
      "name": "allPairsLength",
      "outputs": [
        {
          "internalType": "uint256",
          "name": "",
          "type": "uint256"
        }
      ],
      "stateMutability": "view",
      "type": "function",
      "constant": true
    },
    {
      "inputs": [],
      "name": "pairCodeHash",
      "outputs": [
        {
          "internalType": "bytes32",
          "name": "",
          "type": "bytes32"
        }
      ],
      "stateMutability": "pure",
      "type": "function",
      "constant": true
    },
    {
      "inputs": [
        {
          "internalType": "address",
          "name": "tokenA",
          "type": "address"
        },
        {
          "internalType": "address",
          "name": "tokenB",
          "type": "address"
        }
      ],
      "name": "createPair",
      "outputs": [
        {
          "internalType": "address",
          "name": "pair",
          "type": "address"
        }
      ],
      "stateMutability": "nonpayable",
      "type": "function"
    },
    {
      "inputs": [
        {
          "internalType": "address",
          "name": "_feeTo",
          "type": "address"
        }
      ],
      "name": "setFeeTo",
      "outputs": [],
      "stateMutability": "nonpayable",
      "type": "function"
    },
    {
      "inputs": [
        {
          "internalType": "address",
          "name": "_migrator",
          "type": "address"
        }
      ],
      "name": "setMigrator",
      "outputs": [],
      "stateMutability": "nonpayable",
      "type": "function"
    },
    {
      "inputs": [
        {
          "internalType": "address",
          "name": "_feeToSetter",
          "type": "address"
        }
      ],
      "name": "setFeeToSetter",
      "outputs": [],
      "stateMutability": "nonpayable",
      "type": "function"
    }
  ],
  "bytecode": "0x608060405234801561001057600080fd5b50604051612e08380380612e088339818101604052602081101561003357600080fd5b5051600180546001600160a01b0319166001600160a01b03909216919091179055612da5806100636000396000f3fe608060405234801561001057600080fd5b50600436106100c95760003560e01c80637cd07e4711610081578063c9c653961161005b578063c9c653961461018f578063e6a43905146101bd578063f46901ed146101eb576100c9565b80637cd07e47146101595780639aab924814610161578063a2e74af614610169576100c9565b80631e3dd18b116100b25780631e3dd18b146100fa57806323cf311814610117578063574f2ba31461013f576100c9565b8063017e7e58146100ce578063094b7415146100f2575b600080fd5b6100d6610211565b604080516001600160a01b039092168252519081900360200190f35b6100d6610220565b6100d66004803603602081101561011057600080fd5b503561022f565b61013d6004803603602081101561012d57600080fd5b50356001600160a01b0316610256565b005b6101476102e4565b60408051918252519081900360200190f35b6100d66102ea565b6101476102f9565b61013d6004803603602081101561017f57600080fd5b50356001600160a01b031661032b565b6100d6600480360360408110156101a557600080fd5b506001600160a01b03813581169160200135166103b9565b6100d6600480360360408110156101d357600080fd5b506001600160a01b03813581169160200135166106e2565b61013d6004803603602081101561020157600080fd5b50356001600160a01b0316610708565b6000546001600160a01b031681565b6001546001600160a01b031681565b6004818154811061023c57fe5b6000918252602090912001546001600160a01b0316905081565b6001546001600160a01b031633146102b5576040805162461bcd60e51b815260206004820152601760248201527f4e6576656c6c7573537761703a20464f5242494444454e000000000000000000604482015290519081900360640190fd5b6002805473ffffffffffffffffffffffffffffffffffffffff19166001600160a01b0392909216919091179055565b60045490565b6002546001600160a01b031681565b60006040518060200161030b90610796565b6020820181038252601f19601f8201166040525080519060200120905090565b6001546001600160a01b0316331461038a576040805162461bcd60e51b815260206004820152601760248201527f4e6576656c6c7573537761703a20464f5242494444454e000000000000000000604482015290519081900360640190fd5b6001805473ffffffffffffffffffffffffffffffffffffffff19166001600160a01b0392909216919091179055565b6000816001600160a01b0316836001600160a01b0316141561040c5760405162461bcd60e51b8152600401808060200182810382526021815260200180612d4f6021913960400191505060405180910390fd5b600080836001600160a01b0316856001600160a01b03161061042f578385610432565b84845b90925090506001600160a01b038216610492576040805162461bcd60e51b815260206004820152601a60248201527f4e6576656c6c7573537761703a205a45524f5f41444452455353000000000000604482015290519081900360640190fd5b6001600160a01b0382811660009081526003602090815260408083208585168452909152902054161561050c576040805162461bcd60e51b815260206004820152601960248201527f4e6576656c6c7573537761703a20504149525f45584953545300000000000000604482015290519081900360640190fd5b60606040518060200161051e90610796565b6020820181038252601f19601f8201166040525090506000838360405160200180836001600160a01b031660601b8152601401826001600160a01b031660601b815260140192505050604051602081830303815290604052805190602001209050808251602084016000f59450846001600160a01b031663485cc95585856040518363ffffffff1660e01b815260040180836001600160a01b03168152602001826001600160a01b0316815260200192505050600060405180830381600087803b1580156105eb57600080fd5b505af11580156105ff573d6000803e3d6000fd5b505050506001600160a01b0384811660008181526003602081815260408084208987168086529083528185208054978d1673ffffffffffffffffffffffffffffffffffffffff1998891681179091559383528185208686528352818520805488168517905560048054600181018255958190527f8a35acfbc15ff81a39ae7d344fd709f28e8600b4aa8c65c6b64bfe7fe36bd19b90950180549097168417909655925483519283529082015281517f0d3648bd0f6ba80134a33ba9275ac585d9d315f0ad8355cddefde31afa28d0e9929181900390910190a35050505092915050565b60036020908152600092835260408084209091529082529020546001600160a01b031681565b6001546001600160a01b03163314610767576040805162461bcd60e51b815260206004820152601760248201527f4e6576656c6c7573537761703a20464f5242494444454e000000000000000000604482015290519081900360640190fd5b6000805473ffffffffffffffffffffffffffffffffffffffff19166001600160a01b0392909216919091179055565b6125ab806107a48339019056fe60806040526001600c5534801561001557600080fd5b50604080518082018252601081526f04e6576656c6c75732053776170204c560841b6020918201528151808301835260018152603160f81b9082015281517f8b73c3c69bb8fe3d512ecc4cf759cc79239f7b179b0ffacaa9a75d522b39400f818301527f7ac0b53a586d8f64c6160b1ee46787352767b700f5d8efe85cdaf62559b10c50818401527fc89efdaa54c0f20c7adf612882df0950f5a951637e0307cdcb4c672f298b8bc660608201524660808201523060a0808301919091528351808303909101815260c09091019092528151910120600355600580546001600160a01b0319163317905561249d8061010e6000396000f3fe608060405234801561001057600080fd5b50600436106101b95760003560e01c80636a627842116100f9578063ba9a7a5611610097578063d21220a711610071578063d21220a714610544578063d505accf1461054c578063dd62ed3e1461059d578063fff6cae9146105cb576101b9565b8063ba9a7a561461050e578063bc25cf7714610516578063c45a01551461053c576101b9565b80637ecebe00116100d35780637ecebe001461047557806389afcb441461049b57806395d89b41146104da578063a9059cbb146104e2576101b9565b80636a6278421461042157806370a08231146104475780637464fc3d1461046d576101b9565b806323b872dd116101665780633644e515116101405780633644e515146103db578063485cc955146103e35780635909c0d5146104115780635a3d549314610419576101b9565b806323b872dd1461037f57806330adf81f146103b5578063313ce567146103bd576101b9565b8063095ea7b311610197578063095ea7b3146103015780630dfe16811461034157806318160ddd14610365576101b9565b8063022c0d9f146101be57806306fdde031461024c5780630902f1ac146102c9575b600080fd5b61024a600480360360808110156101d457600080fd5b8135916020810135916001600160a01b03604083013516919081019060808101606082013564010000000081111561020b57600080fd5b82018360208201111561021d57600080fd5b8035906020019184600183028401116401000000008311171561023f57600080fd5b5090925090506105d3565b005b610254610af7565b6040805160208082528351818301528351919283929083019185019080838360005b8381101561028e578181015183820152602001610276565b50505050905090810190601f1680156102bb5780820380516001836020036101000a031916815260200191505b509250505060405180910390f35b6102d1610b30565b604080516001600160701b03948516815292909316602083015263ffffffff168183015290519081900360600190f35b61032d6004803603604081101561031757600080fd5b506001600160a01b038135169060200135610b5a565b604080519115158252519081900360200190f35b610349610b71565b604080516001600160a01b039092168252519081900360200190f35b61036d610b80565b60408051918252519081900360200190f35b61032d6004803603606081101561039557600080fd5b506001600160a01b03813581169160208101359091169060400135610b86565b61036d610c1a565b6103c5610c3e565b6040805160ff9092168252519081900360200190f35b61036d610c43565b61024a600480360360408110156103f957600080fd5b506001600160a01b0381358116916020013516610c49565b61036d610cee565b61036d610cf4565b61036d6004803603602081101561043757600080fd5b50356001600160a01b0316610cfa565b61036d6004803603602081101561045d57600080fd5b50356001600160a01b03166111a1565b61036d6111b3565b61036d6004803603602081101561048b57600080fd5b50356001600160a01b03166111b9565b6104c1600480360360208110156104b157600080fd5b50356001600160a01b03166111cb565b6040805192835260208301919091528051918290030190f35b610254611562565b61032d600480360360408110156104f857600080fd5b506001600160a01b03813516906020013561159b565b61036d6115a8565b61024a6004803603602081101561052c57600080fd5b50356001600160a01b03166115ae565b610349611723565b610349611732565b61024a600480360360e081101561056257600080fd5b506001600160a01b03813581169160208101359091169060408101359060608101359060ff6080820135169060a08101359060c00135611741565b61036d600480360360408110156105b357600080fd5b506001600160a01b0381358116916020013516611969565b61024a611986565b600c54600114610621576040805162461bcd60e51b815260206004820152601460248201527313995d995b1b1d5cd4ddd85c0e881313d0d2d15160621b604482015290519081900360640190fd5b6000600c55841515806106345750600084115b61066f5760405162461bcd60e51b81526004018080602001828103825260288152602001806123c36028913960400191505060405180910390fd5b60008061067a610b30565b5091509150816001600160701b03168710801561069f5750806001600160701b031686105b6106da5760405162461bcd60e51b815260040180806020018281038252602481526020018061239f6024913960400191505060405180910390fd5b60065460075460009182916001600160a01b039182169190811690891682148015906107185750806001600160a01b0316896001600160a01b031614155b610769576040805162461bcd60e51b815260206004820152601860248201527f4e6576656c6c7573537761703a20494e56414c49445f544f0000000000000000604482015290519081900360640190fd5b8a1561077a5761077a828a8d611aeb565b891561078b5761078b818a8c611aeb565b861561083d57886001600160a01b0316637ac2deee338d8d8c8c6040518663ffffffff1660e01b815260040180866001600160a01b03168152602001858152602001848152602001806020018281038252848482818152602001925080828437600081840152601f19601f8201169050808301925050509650505050505050600060405180830381600087803b15801561082457600080fd5b505af1158015610838573d6000803e3d6000fd5b505050505b604080516370a0823160e01b815230600482015290516001600160a01b038416916370a08231916024808301926020929190829003018186803b15801561088357600080fd5b505afa158015610897573d6000803e3d6000fd5b505050506040513d60208110156108ad57600080fd5b5051604080516370a0823160e01b815230600482015290519195506001600160a01b038316916370a0823191602480820192602092909190829003018186803b1580156108f957600080fd5b505afa15801561090d573d6000803e3d6000fd5b505050506040513d602081101561092357600080fd5b5051925060009150506001600160701b0385168a90038311610946576000610955565b89856001600160701b03160383035b9050600089856001600160701b0316038311610972576000610981565b89856001600160701b03160383035b905060008211806109925750600081115b6109cd5760405162461bcd60e51b81526004018080602001828103825260278152602001806124416027913960400191505060405180910390fd5b60006109ef6109dd846003611c9e565b6109e9876103e8611c9e565b90611d0a565b90506000610a016109dd846003611c9e565b9050610a26620f4240610a206001600160701b038b8116908b16611c9e565b90611c9e565b610a308383611c9e565b1015610a83576040805162461bcd60e51b815260206004820152600f60248201527f4e6576656c6c7573537761703a204b0000000000000000000000000000000000604482015290519081900360640190fd5b5050610a9184848888611d62565b60408051838152602081018390528082018d9052606081018c905290516001600160a01b038b169133917fd78ad95fa46c994b6551d0da85fc275fe613ce37657fb8d5e3d130840159d8229181900360800190a350506001600c55505050505050505050565b6040518060400160405280601081526020017f4e6576656c6c75732053776170204c500000000000000000000000000000000081525081565b6008546001600160701b0380821692600160701b830490911691600160e01b900463ffffffff1690565b6000610b67338484611f39565b5060015b92915050565b6006546001600160a01b031681565b60005481565b6001600160a01b038316600090815260026020908152604080832033845290915281205460001914610c05576001600160a01b0384166000908152600260209081526040808320338452909152902054610be09083611d0a565b6001600160a01b03851660009081526002602090815260408083203384529091529020555b610c10848484611f9b565b5060019392505050565b7f6e71edae12b1b97f4d1f60370fef10105fa2faae0126114a169c64845d6126c981565b601281565b60035481565b6005546001600160a01b03163314610ca8576040805162461bcd60e51b815260206004820152601760248201527f4e6576656c6c7573537761703a20464f5242494444454e000000000000000000604482015290519081900360640190fd5b600680546001600160a01b039384167fffffffffffffffffffffffff00000000000000000000000000000000000000009182161790915560078054929093169116179055565b60095481565b600a5481565b6000600c54600114610d4a576040805162461bcd60e51b815260206004820152601460248201527313995d995b1b1d5cd4ddd85c0e881313d0d2d15160621b604482015290519081900360640190fd5b6000600c81905580610d5a610b30565b50600654604080516370a0823160e01b815230600482015290519395509193506000926001600160a01b03909116916370a08231916024808301926020929190829003018186803b158015610dae57600080fd5b505afa158015610dc2573d6000803e3d6000fd5b505050506040513d6020811015610dd857600080fd5b5051600754604080516370a0823160e01b815230600482015290519293506000926001600160a01b03909216916370a0823191602480820192602092909190829003018186803b158015610e2b57600080fd5b505afa158015610e3f573d6000803e3d6000fd5b505050506040513d6020811015610e5557600080fd5b505190506000610e6e836001600160701b038716611d0a565b90506000610e85836001600160701b038716611d0a565b90506000610e938787612049565b6000549091508061109257600554604080517f7cd07e4700000000000000000000000000000000000000000000000000000000815290516000926001600160a01b031691637cd07e47916004808301926020929190829003018186803b158015610efc57600080fd5b505afa158015610f10573d6000803e3d6000fd5b505050506040513d6020811015610f2657600080fd5b50519050336001600160a01b038216141561100957806001600160a01b03166340dc0e376040518163ffffffff1660e01b815260040160206040518083038186803b158015610f7457600080fd5b505afa158015610f88573d6000803e3d6000fd5b505050506040513d6020811015610f9e57600080fd5b505199508915801590610fb357506000198a14155b611004576040805162461bcd60e51b815260206004820152601560248201527f4261642064657369726564206c69717569646974790000000000000000000000604482015290519081900360640190fd5b61108c565b6001600160a01b03811615611065576040805162461bcd60e51b815260206004820152601660248201527f4d757374206e6f742068617665206d69677261746f7200000000000000000000604482015290519081900360640190fd5b61107d6103e86109e96110788888611c9e565b612189565b995061108c60006103e86121db565b506110d5565b6110d26001600160701b0389166110a98684611c9e565b816110b057fe5b046001600160701b0389166110c58685611c9e565b816110cc57fe5b04612265565b98505b600089116111145760405162461bcd60e51b815260040180806020018281038252602b815260200180612416602b913960400191505060405180910390fd5b61111e8a8a6121db565b61112a86868a8a611d62565b811561115457600854611150906001600160701b0380821691600160701b900416611c9e565b600b555b6040805185815260208101859052815133927f4c209b5fc8ad50758f13e2e1088ba56a560dff690a1c6fef26394f4c03821c4f928290030190a250506001600c5550949695505050505050565b60016020526000908152604090205481565b600b5481565b60046020526000908152604090205481565b600080600c5460011461121c576040805162461bcd60e51b815260206004820152601460248201527313995d995b1b1d5cd4ddd85c0e881313d0d2d15160621b604482015290519081900360640190fd5b6000600c8190558061122c610b30565b50600654600754604080516370a0823160e01b815230600482015290519496509294506001600160a01b039182169391169160009184916370a08231916024808301926020929190829003018186803b15801561128857600080fd5b505afa15801561129c573d6000803e3d6000fd5b505050506040513d60208110156112b257600080fd5b5051604080516370a0823160e01b815230600482015290519192506000916001600160a01b038516916370a08231916024808301926020929190829003018186803b15801561130057600080fd5b505afa158015611314573d6000803e3d6000fd5b505050506040513d602081101561132a57600080fd5b5051306000908152600160205260408120549192506113498888612049565b6000549091508061135a8487611c9e565b8161136157fe5b049a508061136f8486611c9e565b8161137657fe5b04995060008b118015611389575060008a115b6113c45760405162461bcd60e51b815260040180806020018281038252602b8152602001806123eb602b913960400191505060405180910390fd5b6113ce308461227d565b6113d9878d8d611aeb565b6113e4868d8c611aeb565b604080516370a0823160e01b815230600482015290516001600160a01b038916916370a08231916024808301926020929190829003018186803b15801561142a57600080fd5b505afa15801561143e573d6000803e3d6000fd5b505050506040513d602081101561145457600080fd5b5051604080516370a0823160e01b815230600482015290519196506001600160a01b038816916370a0823191602480820192602092909190829003018186803b1580156114a057600080fd5b505afa1580156114b4573d6000803e3d6000fd5b505050506040513d60208110156114ca57600080fd5b505193506114da85858b8b611d62565b811561150457600854611500906001600160701b0380821691600160701b900416611c9e565b600b555b604080518c8152602081018c905281516001600160a01b038f169233927fdccd412f0b1252819cb1fd330b93224ca42612892bb3f4f789976e6d81936496929081900390910190a35050505050505050506001600c81905550915091565b6040518060400160405280600781526020017f4e564c532d4c500000000000000000000000000000000000000000000000000081525081565b6000610b67338484611f9b565b6103e881565b600c546001146115fc576040805162461bcd60e51b815260206004820152601460248201527313995d995b1b1d5cd4ddd85c0e881313d0d2d15160621b604482015290519081900360640190fd5b6000600c55600654600754600854604080516370a0823160e01b815230600482015290516001600160a01b0394851694909316926116a592859287926116a0926001600160701b03169185916370a0823191602480820192602092909190829003018186803b15801561166e57600080fd5b505afa158015611682573d6000803e3d6000fd5b505050506040513d602081101561169857600080fd5b505190611d0a565b611aeb565b61171981846116a06008600e9054906101000a90046001600160701b03166001600160701b0316856001600160a01b03166370a08231306040518263ffffffff1660e01b815260040180826001600160a01b0316815260200191505060206040518083038186803b15801561166e57600080fd5b50506001600c5550565b6005546001600160a01b031681565b6007546001600160a01b031681565b42841015611796576040805162461bcd60e51b815260206004820152601560248201527f4e6576656c6c7573537761703a20455850495245440000000000000000000000604482015290519081900360640190fd5b6003546001600160a01b0380891660008181526004602090815260408083208054600180820190925582517f6e71edae12b1b97f4d1f60370fef10105fa2faae0126114a169c64845d6126c98186015280840196909652958d166060860152608085018c905260a085019590955260c08085018b90528151808603909101815260e0850182528051908301207f19010000000000000000000000000000000000000000000000000000000000006101008601526101028501969096526101228085019690965280518085039096018652610142840180825286519683019690962095839052610162840180825286905260ff89166101828501526101a284018890526101c28401879052519193926101e280820193601f1981019281900390910190855afa1580156118cc573d6000803e3d6000fd5b5050604051601f1901519150506001600160a01b038116158015906119025750886001600160a01b0316816001600160a01b0316145b611953576040805162461bcd60e51b815260206004820152601f60248201527f4e6576656c6c7573537761703a20494e56414c49445f5349474e415455524500604482015290519081900360640190fd5b61195e898989611f39565b505050505050505050565b600260209081526000928352604080842090915290825290205481565b600c546001146119d4576040805162461bcd60e51b815260206004820152601460248201527313995d995b1b1d5cd4ddd85c0e881313d0d2d15160621b604482015290519081900360640190fd5b6000600c55600654604080516370a0823160e01b81523060048201529051611ae4926001600160a01b0316916370a08231916024808301926020929190829003018186803b158015611a2557600080fd5b505afa158015611a39573d6000803e3d6000fd5b505050506040513d6020811015611a4f57600080fd5b5051600754604080516370a0823160e01b815230600482015290516001600160a01b03909216916370a0823191602480820192602092909190829003018186803b158015611a9c57600080fd5b505afa158015611ab0573d6000803e3d6000fd5b505050506040513d6020811015611ac657600080fd5b50516008546001600160701b0380821691600160701b900416611d62565b6001600c55565b604080518082018252601981527f7472616e7366657228616464726573732c75696e74323536290000000000000060209182015281516001600160a01b0385811660248301526044808301869052845180840390910181526064909201845291810180516001600160e01b03167fa9059cbb000000000000000000000000000000000000000000000000000000001781529251815160009460609489169392918291908083835b60208310611bb15780518252601f199092019160209182019101611b92565b6001836020036101000a0380198251168184511680821785525050505050509050019150506000604051808303816000865af19150503d8060008114611c13576040519150601f19603f3d011682016040523d82523d6000602084013e611c18565b606091505b5091509150818015611c46575080511580611c465750808060200190516020811015611c4357600080fd5b50515b611c97576040805162461bcd60e51b815260206004820152601d60248201527f4e6576656c6c7573537761703a205452414e534645525f4641494c4544000000604482015290519081900360640190fd5b5050505050565b6000811580611cb957505080820282828281611cb657fe5b04145b610b6b576040805162461bcd60e51b815260206004820152601460248201527f64732d6d6174682d6d756c2d6f766572666c6f77000000000000000000000000604482015290519081900360640190fd5b80820382811115610b6b576040805162461bcd60e51b815260206004820152601560248201527f64732d6d6174682d7375622d756e646572666c6f770000000000000000000000604482015290519081900360640190fd5b6001600160701b038411801590611d8057506001600160701b038311155b611dd1576040805162461bcd60e51b815260206004820152601660248201527f4e6576656c6c7573537761703a204f564552464c4f5700000000000000000000604482015290519081900360640190fd5b60085463ffffffff42811691600160e01b90048116820390811615801590611e0157506001600160701b03841615155b8015611e1557506001600160701b03831615155b15611e80578063ffffffff16611e3d85611e2e8661230f565b6001600160e01b031690612321565b600980546001600160e01b03929092169290920201905563ffffffff8116611e6884611e2e8761230f565b600a80546001600160e01b0392909216929092020190555b600880546dffffffffffffffffffffffffffff19166001600160701b03888116919091177fffffffff0000000000000000000000000000ffffffffffffffffffffffffffff16600160701b8883168102919091176001600160e01b0316600160e01b63ffffffff871602179283905560408051848416815291909304909116602082015281517f1c411e9a96e071241c2f21f7726b17ae89e3cab4c78be50e062b03a9fffbbad1929181900390910190a1505050505050565b6001600160a01b03808416600081815260026020908152604080832094871680845294825291829020859055815185815291517f8c5be1e5ebec7d5bd14f71427d1e84f3dd0314c0f7b2291e5b200ac8c7c3b9259281900390910190a3505050565b6001600160a01b038316600090815260016020526040902054611fbe9082611d0a565b6001600160a01b038085166000908152600160205260408082209390935590841681522054611fed9082612346565b6001600160a01b0380841660008181526001602090815260409182902094909455805185815290519193928716927fddf252ad1be2c89b69c2b068fc378daa952ba7f163c4a11628f55a4df523b3ef92918290030190a3505050565b600080600560009054906101000a90046001600160a01b03166001600160a01b031663017e7e586040518163ffffffff1660e01b815260040160206040518083038186803b15801561209a57600080fd5b505afa1580156120ae573d6000803e3d6000fd5b505050506040513d60208110156120c457600080fd5b5051600b546001600160a01b0382161580159450919250906121755780156121705760006121016110786001600160701b03888116908816611c9e565b9050600061210e83612189565b90508082111561216d5760006121306121278484611d0a565b60005490611c9e565b9050600061214983612143866005611c9e565b90612346565b9050600081838161215657fe5b04905080156121695761216987826121db565b5050505b50505b612181565b8015612181576000600b555b505092915050565b600060038211156121cc575080600160028204015b818110156121c6578091506002818285816121b557fe5b0401816121be57fe5b04905061219e565b506121d6565b81156121d6575060015b919050565b6000546121e89082612346565b60009081556001600160a01b03831681526001602052604090205461220d9082612346565b6001600160a01b03831660008181526001602090815260408083209490945583518581529351929391927fddf252ad1be2c89b69c2b068fc378daa952ba7f163c4a11628f55a4df523b3ef9281900390910190a35050565b60008183106122745781612276565b825b9392505050565b6001600160a01b0382166000908152600160205260409020546122a09082611d0a565b6001600160a01b038316600090815260016020526040812091909155546122c79082611d0a565b60009081556040805183815290516001600160a01b038516917fddf252ad1be2c89b69c2b068fc378daa952ba7f163c4a11628f55a4df523b3ef919081900360200190a35050565b6001600160701b0316600160701b0290565b60006001600160701b0382166001600160e01b0384168161233e57fe5b049392505050565b80820182811015610b6b576040805162461bcd60e51b815260206004820152601460248201527f64732d6d6174682d6164642d6f766572666c6f77000000000000000000000000604482015290519081900360640190fdfe4e6576656c6c7573537761703a20494e53554646494349454e545f4c49515549444954594e6576656c6c7573537761703a20494e53554646494349454e545f4f55545055545f414d4f554e544e6576656c6c7573537761703a20494e53554646494349454e545f4c49515549444954595f4255524e45444e6576656c6c7573537761703a20494e53554646494349454e545f4c49515549444954595f4d494e5445444e6576656c6c7573537761703a20494e53554646494349454e545f494e5055545f414d4f554e54a2646970667358221220c7737367ddb3362dcd4622140a21fe8322c6b648800e18d4cbbce2c14c39b5c164736f6c634300060c00334e6576656c6c7573537761703a204944454e544943414c5f414444524553534553a2646970667358221220ca8deaf780dcb9fa723dd60209ab666d2b3c654d5d4178815b2d243192a4cba364736f6c634300060c0033",
  "immutableReferences": {},
  "source": "// SPDX-License-Identifier: GPL-3.0\r\n\r\npragma solidity =0.6.12;\r\n\r\nimport './interfaces/INevellusSwapFactory.sol';\r\nimport './NevellusSwapPair.sol';\r\n\r\ncontract NevellusSwapFactory is INevellusSwapFactory {\r\n    address public override feeTo;\r\n    address public override feeToSetter;\r\n    address public override migrator;\r\n\r\n    mapping(address => mapping(address => address)) public override getPair;\r\n    address[] public override allPairs;\r\n\r\n    event PairCreated(address indexed token0, address indexed token1, address pair, uint);\r\n\r\n    constructor(address _feeToSetter) public {\r\n        feeToSetter = _feeToSetter;\r\n    }\r\n\r\n    function allPairsLength() external override view returns (uint) {\r\n        return allPairs.length;\r\n    }\r\n\r\n    function pairCodeHash() external pure returns (bytes32) {\r\n        return keccak256(type(NevellusSwapPair).creationCode);\r\n    }\r\n\r\n    function createPair(address tokenA, address tokenB) external override returns (address pair) {\r\n        require(tokenA != tokenB, 'NevellusSwap: IDENTICAL_ADDRESSES');\r\n        (address token0, address token1) = tokenA < tokenB ? (tokenA, tokenB) : (tokenB, tokenA);\r\n        require(token0 != address(0), 'NevellusSwap: ZERO_ADDRESS');\r\n        require(getPair[token0][token1] == address(0), 'NevellusSwap: PAIR_EXISTS'); // single check is sufficient\r\n        bytes memory bytecode = type(NevellusSwapPair).creationCode;\r\n        bytes32 salt = keccak256(abi.encodePacked(token0, token1));\r\n        assembly {\r\n            pair := create2(0, add(bytecode, 32), mload(bytecode), salt)\r\n        }\r\n        NevellusSwapPair(pair).initialize(token0, token1);\r\n        getPair[token0][token1] = pair;\r\n        getPair[token1][token0] = pair; // populate mapping in the reverse direction\r\n        allPairs.push(pair);\r\n        emit PairCreated(token0, token1, pair, allPairs.length);\r\n    }\r\n\r\n    function setFeeTo(address _feeTo) external override {\r\n        require(msg.sender == feeToSetter, 'NevellusSwap: FORBIDDEN');\r\n        feeTo = _feeTo;\r\n    }\r\n\r\n    function setMigrator(address _migrator) external override {\r\n        require(msg.sender == feeToSetter, 'NevellusSwap: FORBIDDEN');\r\n        migrator = _migrator;\r\n    }\r\n\r\n    function setFeeToSetter(address _feeToSetter) external override {\r\n        require(msg.sender == feeToSetter, 'NevellusSwap: FORBIDDEN');\r\n        feeToSetter = _feeToSetter;\r\n    }\r\n}\r\n",
  "sourcePath": "C:\\Users\\ferna\\Desktop\\Projects\\Beta Projects\\From Start\\nevellusswap-core\\contracts\\NevellusSwapFactory.sol",
  "compiler": {
    "name": "solc",
    "version": "0.6.12+commit.27d51765.Emscripten.clang"
  },
  "schemaVersion": "3.4.8",
  "updatedAt": "2022-09-30T04:55:28.142Z",
  "networkType": "ethereum",
  "devdoc": {
    "kind": "dev",
    "methods": {},
    "version": 1
  },
  "userdoc": {
    "kind": "user",
    "methods": {},
    "version": 1
  }
}