{
  "contractName": "NevellusMigrator",
  "abi": [
    {
      "inputs": [
        {
          "internalType": "contract INevellusSwapRouter01",
          "name": "_oldRouter",
          "type": "address"
        },
        {
          "internalType": "contract INevellusSwapRouter01",
          "name": "_router",
          "type": "address"
        }
      ],
      "stateMutability": "nonpayable",
      "type": "constructor"
    },
    {
      "inputs": [],
      "name": "oldRouter",
      "outputs": [
        {
          "internalType": "contract INevellusSwapRouter01",
          "name": "",
          "type": "address"
        }
      ],
      "stateMutability": "view",
      "type": "function"
    },
    {
      "inputs": [],
      "name": "router",
      "outputs": [
        {
          "internalType": "contract INevellusSwapRouter01",
          "name": "",
          "type": "address"
        }
      ],
      "stateMutability": "view",
      "type": "function"
    },
    {
      "inputs": [
        {
          "internalType": "address",
          "name": "tokenA",
          "type": "address"
        },
        {
          "internalType": "address",
          "name": "tokenB",
          "type": "address"
        },
        {
          "internalType": "uint256",
          "name": "liquidity",
          "type": "uint256"
        },
        {
          "internalType": "uint256",
          "name": "amountADesired",
          "type": "uint256"
        },
        {
          "internalType": "uint256",
          "name": "amountBDesired",
          "type": "uint256"
        },
        {
          "internalType": "uint256",
          "name": "amountAMin",
          "type": "uint256"
        },
        {
          "internalType": "uint256",
          "name": "amountBMin",
          "type": "uint256"
        },
        {
          "internalType": "uint256",
          "name": "deadline",
          "type": "uint256"
        },
        {
          "internalType": "uint8",
          "name": "v",
          "type": "uint8"
        },
        {
          "internalType": "bytes32",
          "name": "r",
          "type": "bytes32"
        },
        {
          "internalType": "bytes32",
          "name": "s",
          "type": "bytes32"
        }
      ],
      "name": "migrateWithPermit",
      "outputs": [],
      "stateMutability": "nonpayable",
      "type": "function"
    },
    {
      "inputs": [
        {
          "internalType": "address",
          "name": "tokenA",
          "type": "address"
        },
        {
          "internalType": "address",
          "name": "tokenB",
          "type": "address"
        },
        {
          "internalType": "uint256",
          "name": "liquidity",
          "type": "uint256"
        },
        {
          "internalType": "uint256",
          "name": "amountADesired",
          "type": "uint256"
        },
        {
          "internalType": "uint256",
          "name": "amountBDesired",
          "type": "uint256"
        },
        {
          "internalType": "uint256",
          "name": "amountAMin",
          "type": "uint256"
        },
        {
          "internalType": "uint256",
          "name": "amountBMin",
          "type": "uint256"
        },
        {
          "internalType": "uint256",
          "name": "deadline",
          "type": "uint256"
        }
      ],
      "name": "migrate",
      "outputs": [],
      "stateMutability": "nonpayable",
      "type": "function"
    }
  ],
  "bytecode": "0x608060405234801561001057600080fd5b5060405161120a38038061120a8339818101604052604081101561003357600080fd5b508051602090910151600080546001600160a01b039384166001600160a01b031991821617909155600180549390921692169190911790556111908061007a6000396000f3fe608060405234801561001057600080fd5b506004361061004c5760003560e01c806370d9e44b14610051578063964c1f98146100c0578063f7aa6d8a146100e4578063f887ea4014610139575b600080fd5b6100be600480360361016081101561006857600080fd5b506001600160a01b03813581169160208101359091169060408101359060608101359060808101359060a08101359060c08101359060e08101359060ff6101008201351690610120810135906101400135610141565b005b6100c8610212565b604080516001600160a01b039092168252519081900360200190f35b6100be60048036036101008110156100fb57600080fd5b506001600160a01b03813581169160208101359091169060408101359060608101359060808101359060a08101359060c08101359060e00135610221565b6100c86102db565b600061014d8c8c6102ea565b604080517fd505accf000000000000000000000000000000000000000000000000000000008152336004820152306024820152604481018d90526064810188905260ff8716608482015260a4810186905260c4810185905290519192506001600160a01b0383169163d505accf9160e48082019260009290919082900301818387803b1580156101dc57600080fd5b505af11580156101f0573d6000803e3d6000fd5b505050506102048c8c8c8c8c8c8c8c610221565b505050505050505050505050565b6000546001600160a01b031681565b42811015610276576040805162461bcd60e51b815260206004820152601560248201527f4e6576656c6c7573537761703a20455850495245440000000000000000000000604482015290519081900360640190fd5b6000806102868a8a8a8888610438565b9150915060008061029b8c8c8b8b8b8b610645565b91509150818411156102bd576102bd6001600160a01b038d16338487036108fb565b80831115610204576102046001600160a01b038c16338386036108fb565b6001546001600160a01b031681565b60008060006102f98585610980565b9150915060008054906101000a90046001600160a01b03166001600160a01b031663c45a01556040518163ffffffff1660e01b815260040160206040518083038186803b15801561034957600080fd5b505afa15801561035d573d6000803e3d6000fd5b505050506040513d602081101561037357600080fd5b5051604080516bffffffffffffffffffffffff19606095861b811660208381019190915294861b81166034830152825160288184030181526048830184528051908601207fff0000000000000000000000000000000000000000000000000000000000000060688401529390951b9094166069850152607d8401919091527f96e8ac4277198ff8b6f785478aa9a39f403cb768dd02cbee326c3e7da348845f609d808501919091528151808503909101815260bd909301905281519101209392505050565b600080600061044788886102ea565b604080517f23b872dd0000000000000000000000000000000000000000000000000000000081523360048201526001600160a01b03831660248201819052604482018a9052915192935090916323b872dd916064808201926020929091908290030181600087803b1580156104bb57600080fd5b505af11580156104cf573d6000803e3d6000fd5b505050506040513d60208110156104e557600080fd5b5050604080517f89afcb44000000000000000000000000000000000000000000000000000000008152306004820152815160009283926001600160a01b038616926389afcb449260248084019391929182900301818787803b15801561054a57600080fd5b505af115801561055e573d6000803e3d6000fd5b505050506040513d604081101561057457600080fd5b5080516020909101519092509050600061058e8b8b610980565b509050806001600160a01b03168b6001600160a01b0316146105b15781836105b4565b82825b9096509450878610156105f85760405162461bcd60e51b81526004018080602001828103825260238152602001806110c46023913960400191505060405180910390fd5b868510156106375760405162461bcd60e51b81526004018080602001828103825260238152602001806110a16023913960400191505060405180910390fd5b505050509550959350505050565b6000806000600160009054906101000a90046001600160a01b03166001600160a01b031663c45a01556040518163ffffffff1660e01b815260040160206040518083038186803b15801561069857600080fd5b505afa1580156106ac573d6000803e3d6000fd5b505050506040513d60208110156106c257600080fd5b5051604080517fe6a439050000000000000000000000000000000000000000000000000000000081526001600160a01b038c811660048301528b8116602483015291519293506000929184169163e6a4390591604480820192602092909190829003018186803b15801561073557600080fd5b505afa158015610749573d6000803e3d6000fd5b505050506040513d602081101561075f57600080fd5b50516001600160a01b031614156107fd57806001600160a01b031663c9c653968a8a6040518363ffffffff1660e01b815260040180836001600160a01b03168152602001826001600160a01b0316815260200192505050602060405180830381600087803b1580156107d057600080fd5b505af11580156107e4573d6000803e3d6000fd5b505050506040513d60208110156107fa57600080fd5b50505b60008061080b838c8c610a48565b9150915081600014801561081d575080155b1561082d578894508793506108ed565b600061083a8a8484610b16565b905088811161088d57868110156108825760405162461bcd60e51b8152600401808060200182810382526029815260200180610fd76029913960400191505060405180910390fd5b8995509350836108eb565b600061089a8a8486610b16565b90508a8111156108a657fe5b888110156108e55760405162461bcd60e51b81526004018080602001828103825260298152602001806111116029913960400191505060405180910390fd5b95508894505b505b505050965096945050505050565b604080516001600160a01b038416602482015260448082018490528251808303909101815260649091019091526020810180517bffffffffffffffffffffffffffffffffffffffffffffffffffffffff167fa9059cbb0000000000000000000000000000000000000000000000000000000017905261097b908490610bbc565b505050565b600080826001600160a01b0316846001600160a01b031614156109d45760405162461bcd60e51b81526004018080602001828103825260288152602001806110006028913960400191505060405180910390fd5b826001600160a01b0316846001600160a01b0316106109f45782846109f7565b83835b90925090506001600160a01b038216610a415760405162461bcd60e51b815260040180806020018281038252602181526020018061113a6021913960400191505060405180910390fd5b9250929050565b6000806000610a578585610980565b509050600080610a68888888610c6d565b6001600160a01b0316630902f1ac6040518163ffffffff1660e01b815260040160606040518083038186803b158015610aa057600080fd5b505afa158015610ab4573d6000803e3d6000fd5b505050506040513d6060811015610aca57600080fd5b5080516020909101516dffffffffffffffffffffffffffff91821693501690506001600160a01b0387811690841614610b04578082610b07565b81815b90999098509650505050505050565b6000808411610b565760405162461bcd60e51b81526004018080602001828103825260288152602001806110796028913960400191505060405180910390fd5b600083118015610b665750600082115b610ba15760405162461bcd60e51b815260040180806020018281038252602b81526020018061104e602b913960400191505060405180910390fd5b82610bac8584610d45565b81610bb357fe5b04949350505050565b6060610c11826040518060400160405280602081526020017f5361666545524332303a206c6f772d6c6576656c2063616c6c206661696c6564815250856001600160a01b0316610db79092919063ffffffff16565b80519091501561097b57808060200190516020811015610c3057600080fd5b505161097b5760405162461bcd60e51b815260040180806020018281038252602a8152602001806110e7602a913960400191505060405180910390fd5b6000806000610c7c8585610980565b604080516bffffffffffffffffffffffff19606094851b811660208084019190915293851b81166034830152825160288184030181526048830184528051908501207fff0000000000000000000000000000000000000000000000000000000000000060688401529a90941b9093166069840152607d8301989098527fe18a34eb0e04b04f7a0ac29a6e80748dca96319b42c54d679cb821dca90c6303609d808401919091528851808403909101815260bd909201909752805196019590952095945050505050565b6000811580610d6057505080820282828281610d5d57fe5b04145b610db1576040805162461bcd60e51b815260206004820152601460248201527f64732d6d6174682d6d756c2d6f766572666c6f77000000000000000000000000604482015290519081900360640190fd5b92915050565b6060610dc68484600085610dd0565b90505b9392505050565b606082471015610e115760405162461bcd60e51b81526004018080602001828103825260268152602001806110286026913960400191505060405180910390fd5b610e1a85610f2c565b610e6b576040805162461bcd60e51b815260206004820152601d60248201527f416464726573733a2063616c6c20746f206e6f6e2d636f6e7472616374000000604482015290519081900360640190fd5b60006060866001600160a01b031685876040518082805190602001908083835b60208310610eaa5780518252601f199092019160209182019101610e8b565b6001836020036101000a03801982511681845116808217855250505050505090500191505060006040518083038185875af1925050503d8060008114610f0c576040519150601f19603f3d011682016040523d82523d6000602084013e610f11565b606091505b5091509150610f21828286610f32565b979650505050505050565b3b151590565b60608315610f41575081610dc9565b825115610f515782518084602001fd5b8160405162461bcd60e51b81526004018080602001828103825283818151815260200191508051906020019080838360005b83811015610f9b578181015183820152602001610f83565b50505050905090810190601f168015610fc85780820380516001836020036101000a031916815260200191505b509250505060405180910390fdfe4e6576656c6c757353776170526f757465723a20494e53554646494349454e545f425f414d4f554e544e6576656c6c7573537761704c6962726172793a204944454e544943414c5f414444524553534553416464726573733a20696e73756666696369656e742062616c616e636520666f722063616c6c4e6576656c6c7573537761704c6962726172793a20494e53554646494349454e545f4c49515549444954594e6576656c6c7573537761704c6962726172793a20494e53554646494349454e545f414d4f554e544e6576656c6c7573537761703a20494e53554646494349454e545f425f414d4f554e544e6576656c6c7573537761703a20494e53554646494349454e545f415f414d4f554e545361666545524332303a204552433230206f7065726174696f6e20646964206e6f7420737563636565644e6576656c6c757353776170526f757465723a20494e53554646494349454e545f415f414d4f554e544e6576656c6c7573537761704c6962726172793a205a45524f5f41444452455353a2646970667358221220866a2ea4ca9beb9ae3bee51624cf498bca0213290f87e6f2e00ef9db6690641764736f6c634300060c0033",
  "immutableReferences": {},
  "source": "// SPDX-License-Identifier: MIT\r\n\r\npragma solidity 0.6.12;\r\n\r\nimport '@openzeppelin/contracts/token/ERC20/IERC20.sol';\r\nimport '@openzeppelin/contracts/token/ERC20/SafeERC20.sol';\r\nimport './interfaces/INevellusSwapPair.sol';\r\nimport './interfaces/INevellusSwapRouter01.sol';\r\nimport './interfaces/INevellusSwapFactory.sol';\r\nimport './libraries/NevellusSwapLibrary.sol';\r\n\r\n// NevellusMigrator helps your migrate your existing Uniswap LP tokens to NevellusSwap LP ones\r\ncontract NevellusMigrator {\r\n  using SafeERC20 for IERC20;\r\n\r\n  INevellusSwapRouter01 public oldRouter;\r\n  INevellusSwapRouter01 public router;\r\n\r\n  constructor(INevellusSwapRouter01 _oldRouter, INevellusSwapRouter01 _router) public {\r\n    oldRouter = _oldRouter;\r\n    router = _router;\r\n  }\r\n\r\n  function migrateWithPermit(\r\n    address tokenA,\r\n    address tokenB,\r\n    uint256 liquidity,\r\n    uint256 amountADesired,\r\n    uint256 amountBDesired,\r\n    uint256 amountAMin,\r\n    uint256 amountBMin,\r\n    uint256 deadline,\r\n    uint8 v,\r\n    bytes32 r,\r\n    bytes32 s\r\n  ) public {\r\n    INevellusSwapPair pair = INevellusSwapPair(pairForOldRouter(tokenA, tokenB));\r\n    pair.permit(msg.sender, address(this), liquidity, deadline, v, r, s);\r\n\r\n    migrate(tokenA, tokenB, liquidity, amountADesired, amountBDesired, amountAMin, amountBMin, deadline);\r\n  }\r\n\r\n  // msg.sender should have approved 'liquidity' amount of LP token of 'tokenA' and 'tokenB'\r\n  function migrate(\r\n    address tokenA,\r\n    address tokenB,\r\n    uint256 liquidity,\r\n    uint256 amountADesired,\r\n    uint256 amountBDesired,\r\n    uint256 amountAMin,\r\n    uint256 amountBMin,\r\n    uint256 deadline\r\n  ) public {\r\n    require(deadline >= block.timestamp, 'NevellusSwap: EXPIRED');\r\n\r\n    // Remove liquidity from the old router with permit\r\n    (uint256 amountA, uint256 amountB) = removeLiquidity(tokenA, tokenB, liquidity, amountAMin, amountBMin);\r\n\r\n    // Add liquidity to the new router\r\n    (uint256 pooledAmountA, uint256 pooledAmountB) = _addLiquidity(\r\n      tokenA,\r\n      tokenB,\r\n      amountADesired,\r\n      amountBDesired,\r\n      amountAMin,\r\n      amountBMin\r\n    );\r\n\r\n    // Send remaining tokens to msg.sender\r\n    if (amountA > pooledAmountA) {\r\n      IERC20(tokenA).safeTransfer(msg.sender, amountA - pooledAmountA);\r\n    }\r\n    if (amountB > pooledAmountB) {\r\n      IERC20(tokenB).safeTransfer(msg.sender, amountB - pooledAmountB);\r\n    }\r\n  }\r\n\r\n  function removeLiquidity(\r\n    address tokenA,\r\n    address tokenB,\r\n    uint256 liquidity,\r\n    uint256 amountAMin,\r\n    uint256 amountBMin\r\n  ) internal returns (uint256 amountA, uint256 amountB) {\r\n    INevellusSwapPair pair = INevellusSwapPair(pairForOldRouter(tokenA, tokenB));\r\n    pair.transferFrom(msg.sender, address(pair), liquidity);\r\n    (uint256 amount0, uint256 amount1) = pair.burn(address(this));\r\n    (address token0, ) = NevellusSwapLibrary.sortTokens(tokenA, tokenB);\r\n    (amountA, amountB) = tokenA == token0 ? (amount0, amount1) : (amount1, amount0);\r\n    require(amountA >= amountAMin, 'NevellusSwap: INSUFFICIENT_A_AMOUNT');\r\n    require(amountB >= amountBMin, 'NevellusSwap: INSUFFICIENT_B_AMOUNT');\r\n  }\r\n\r\n  // calculates the CREATE2 address for a pair without making any external calls\r\n  function pairForOldRouter(address tokenA, address tokenB) internal view returns (address pair) {\r\n    (address token0, address token1) = NevellusSwapLibrary.sortTokens(tokenA, tokenB);\r\n    pair = address(\r\n      uint256(\r\n        keccak256(\r\n          abi.encodePacked(\r\n            hex'ff',\r\n            oldRouter.factory(),\r\n            keccak256(abi.encodePacked(token0, token1)),\r\n            hex'96e8ac4277198ff8b6f785478aa9a39f403cb768dd02cbee326c3e7da348845f' // init code hash\r\n          )\r\n        )\r\n      )\r\n    );\r\n  }\r\n\r\n  function addLiquidity(\r\n    address tokenA,\r\n    address tokenB,\r\n    uint256 amountADesired,\r\n    uint256 amountBDesired,\r\n    uint256 amountAMin,\r\n    uint256 amountBMin,\r\n    address to,\r\n    uint256 deadline\r\n  )\r\n    internal\r\n    returns (\r\n      uint256 amountA,\r\n      uint256 amountB,\r\n      uint256 liquidity\r\n    )\r\n  {\r\n    require(deadline >= block.timestamp, 'NevellusSwap: EXPIRED');\r\n    (amountA, amountB) = _addLiquidity(tokenA, tokenB, amountADesired, amountBDesired, amountAMin, amountBMin);\r\n    address pair = NevellusSwapLibrary.pairFor(router.factory(), tokenA, tokenB);\r\n    IERC20(tokenA).safeTransferFrom(msg.sender, pair, amountA);\r\n    IERC20(tokenB).safeTransferFrom(msg.sender, pair, amountB);\r\n    liquidity = INevellusSwapPair(pair).mint(to);\r\n  }\r\n\r\n  function _addLiquidity(\r\n    address tokenA,\r\n    address tokenB,\r\n    uint256 amountADesired,\r\n    uint256 amountBDesired,\r\n    uint256 amountAMin,\r\n    uint256 amountBMin\r\n  ) internal returns (uint256 amountA, uint256 amountB) {\r\n    // create the pair if it doesn't exist yet\r\n    INevellusSwapFactory factory = INevellusSwapFactory(router.factory());\r\n    if (factory.getPair(tokenA, tokenB) == address(0)) {\r\n      factory.createPair(tokenA, tokenB);\r\n    }\r\n    (uint256 reserveA, uint256 reserveB) = NevellusSwapLibrary.getReserves(address(factory), tokenA, tokenB);\r\n    if (reserveA == 0 && reserveB == 0) {\r\n      (amountA, amountB) = (amountADesired, amountBDesired);\r\n    } else {\r\n      uint256 amountBOptimal = NevellusSwapLibrary.quote(amountADesired, reserveA, reserveB);\r\n      if (amountBOptimal <= amountBDesired) {\r\n        require(amountBOptimal >= amountBMin, 'NevellusSwapRouter: INSUFFICIENT_B_AMOUNT');\r\n        (amountA, amountB) = (amountADesired, amountBOptimal);\r\n      } else {\r\n        uint256 amountAOptimal = NevellusSwapLibrary.quote(amountBDesired, reserveB, reserveA);\r\n        assert(amountAOptimal <= amountADesired);\r\n        require(amountAOptimal >= amountAMin, 'NevellusSwapRouter: INSUFFICIENT_A_AMOUNT');\r\n        (amountA, amountB) = (amountAOptimal, amountBDesired);\r\n      }\r\n    }\r\n  }\r\n}\r\n",
  "sourcePath": "C:\\Users\\ferna\\Desktop\\Projects\\Beta Projects\\From Start\\nevellusswap-core\\contracts\\NevellusMigrator.sol",
  "compiler": {
    "name": "solc",
    "version": "0.6.12+commit.27d51765.Emscripten.clang"
  },
  "schemaVersion": "3.4.8",
  "updatedAt": "2022-09-30T04:53:44.351Z",
  "devdoc": {
    "kind": "dev",
    "methods": {},
    "version": 1
  },
  "userdoc": {
    "kind": "user",
    "methods": {},
    "version": 1
  }
}