{
  "contractName": "ExampleSwapToPrice",
  "abi": [
    {
      "inputs": [
        {
          "internalType": "address",
          "name": "factory_",
          "type": "address"
        },
        {
          "internalType": "contract INevellusSwapRouter01",
          "name": "router_",
          "type": "address"
        }
      ],
      "stateMutability": "nonpayable",
      "type": "constructor"
    },
    {
      "inputs": [],
      "name": "factory",
      "outputs": [
        {
          "internalType": "address",
          "name": "",
          "type": "address"
        }
      ],
      "stateMutability": "view",
      "type": "function"
    },
    {
      "inputs": [],
      "name": "router",
      "outputs": [
        {
          "internalType": "contract INevellusSwapRouter01",
          "name": "",
          "type": "address"
        }
      ],
      "stateMutability": "view",
      "type": "function"
    },
    {
      "inputs": [
        {
          "internalType": "address",
          "name": "tokenA",
          "type": "address"
        },
        {
          "internalType": "address",
          "name": "tokenB",
          "type": "address"
        },
        {
          "internalType": "uint256",
          "name": "truePriceTokenA",
          "type": "uint256"
        },
        {
          "internalType": "uint256",
          "name": "truePriceTokenB",
          "type": "uint256"
        },
        {
          "internalType": "uint256",
          "name": "maxSpendTokenA",
          "type": "uint256"
        },
        {
          "internalType": "uint256",
          "name": "maxSpendTokenB",
          "type": "uint256"
        },
        {
          "internalType": "address",
          "name": "to",
          "type": "address"
        },
        {
          "internalType": "uint256",
          "name": "deadline",
          "type": "uint256"
        }
      ],
      "name": "swapToPrice",
      "outputs": [],
      "stateMutability": "nonpayable",
      "type": "function"
    }
  ],
  "bytecode": "0x60c060405234801561001057600080fd5b5060405161102f38038061102f8339818101604052604081101561003357600080fd5b5080516020909101516001600160601b0319606092831b811660a052911b1660805260805160601c60a05160601c610fa261008d6000398061019152806104a652508061025b52806102fe52806104ca5250610fa26000f3fe608060405234801561001057600080fd5b50600436106100415760003560e01c8063bef90fd314610046578063c45a01551461009d578063f887ea40146100c1575b600080fd5b61009b600480360361010081101561005d57600080fd5b506001600160a01b038135811691602081013582169160408201359160608101359160808201359160a08101359160c0820135169060e001356100c9565b005b6100a56104a4565b604080516001600160a01b039092168252519081900360200190f35b6100a56104c8565b85158015906100d757508415155b610128576040805162461bcd60e51b815260206004820152601e60248201527f4578616d706c6553776170546f50726963653a205a45524f5f50524943450000604482015290519081900360640190fd5b8315158061013557508215155b610186576040805162461bcd60e51b815260206004820152601e60248201527f4578616d706c6553776170546f50726963653a205a45524f5f5350454e440000604482015290519081900360640190fd5b6000806000806101b77f00000000000000000000000000000000000000000000000000000000000000008d8d6104ec565b915091506101c78a8a84846105ba565b909450925050508061020a5760405162461bcd60e51b8152600401808060200182810382526022815260200180610f2a6022913960400191505060405180910390fd5b6000826102175785610219565b865b905080821115610227578091505b600083610234578a610236565b8b5b9050600084610245578c610247565b8b5b905061025582333087610681565b610280827f00000000000000000000000000000000000000000000000000000000000000008661080c565b604080516002808252606080830184529260208301908036833701905050905082816000815181106102ae57fe5b60200260200101906001600160a01b031690816001600160a01b03168152505081816001815181106102dc57fe5b60200260200101906001600160a01b031690816001600160a01b0316815250507f00000000000000000000000000000000000000000000000000000000000000006001600160a01b03166338ed1739866000848c8c6040518663ffffffff1660e01b81526004018086815260200185815260200180602001846001600160a01b03168152602001838152602001828103825285818151815260200191508051906020019060200280838360005b838110156103a1578181015183820152602001610389565b505050509050019650505050505050600060405180830381600087803b1580156103ca57600080fd5b505af11580156103de573d6000803e3d6000fd5b505050506040513d6000823e601f3d908101601f19168201604052602081101561040757600080fd5b810190808051604051939291908464010000000082111561042757600080fd5b90830190602082018581111561043c57600080fd5b825186602082028301116401000000008211171561045957600080fd5b82525081516020918201928201910280838360005b8381101561048657818101518382015260200161046e565b50505050905001604052505050505050505050505050505050505050565b7f000000000000000000000000000000000000000000000000000000000000000081565b7f000000000000000000000000000000000000000000000000000000000000000081565b60008060006104fb858561098e565b50905060008061050c888888610a56565b6001600160a01b0316630902f1ac6040518163ffffffff1660e01b815260040160606040518083038186803b15801561054457600080fd5b505afa158015610558573d6000803e3d6000fd5b505050506040513d606081101561056e57600080fd5b5080516020909101516dffffffffffffffffffffffffffff91821693501690506001600160a01b03878116908416146105a85780826105ab565b81815b90999098509650505050505050565b600080856105c9858786610b2e565b10915060006105d88585610be9565b9050600061061e6106196105ee846103e8610be9565b866105f957896105fb565b8a5b6106146103e58961060c578d61060e565b8c5b90610be9565b610b2e565b610c5b565b905060006103e58561063b57610636876103e8610be9565b610647565b610647886103e8610be9565b8161064e57fe5b049050808210156106685760008094509450505050610678565b6106728282610db0565b93505050505b94509492505050565b604080516001600160a01b0385811660248301528481166044830152606480830185905283518084039091018152608490920183526020820180517bffffffffffffffffffffffffffffffffffffffffffffffffffffffff167f23b872dd0000000000000000000000000000000000000000000000000000000017815292518251600094606094938a169392918291908083835b602083106107345780518252601f199092019160209182019101610715565b6001836020036101000a0380198251168184511680821785525050505050509050019150506000604051808303816000865af19150503d8060008114610796576040519150601f19603f3d011682016040523d82523d6000602084013e61079b565b606091505b50915091508180156107c95750805115806107c957508080602001905160208110156107c657600080fd5b50515b6108045760405162461bcd60e51b8152600401808060200182810382526031815260200180610ece6031913960400191505060405180910390fd5b505050505050565b604080516001600160a01b038481166024830152604480830185905283518084039091018152606490920183526020820180517bffffffffffffffffffffffffffffffffffffffffffffffffffffffff167f095ea7b300000000000000000000000000000000000000000000000000000000178152925182516000946060949389169392918291908083835b602083106108b75780518252601f199092019160209182019101610898565b6001836020036101000a0380198251168184511680821785525050505050509050019150506000604051808303816000865af19150503d8060008114610919576040519150601f19603f3d011682016040523d82523d6000602084013e61091e565b606091505b509150915081801561094c57508051158061094c575080806020019051602081101561094957600080fd5b50515b6109875760405162461bcd60e51b815260040180806020018281038252602b815260200180610eff602b913960400191505060405180910390fd5b5050505050565b600080826001600160a01b0316846001600160a01b031614156109e25760405162461bcd60e51b8152600401808060200182810382526028815260200180610ea66028913960400191505060405180910390fd5b826001600160a01b0316846001600160a01b031610610a02578284610a05565b83835b90925090506001600160a01b038216610a4f5760405162461bcd60e51b8152600401808060200182810382526021815260200180610f4c6021913960400191505060405180910390fd5b9250929050565b6000806000610a65858561098e565b604080516bffffffffffffffffffffffff19606094851b811660208084019190915293851b81166034830152825160288184030181526048830184528051908501207fff0000000000000000000000000000000000000000000000000000000000000060688401529a90941b9093166069840152607d8301989098527f203da0c96d114b30e9c823d04417bd8f29e3316d48d5caf137ccd694b67cc254609d808401919091528851808403909101815260bd909201909752805196019590952095945050505050565b6000806000610b3d8686610e08565b9150915060008480610b4b57fe5b868809905082811115610b5f576001820391505b918290039181610b7d57848381610b7257fe5b049350505050610be2565b848210610bd1576040805162461bcd60e51b815260206004820152601a60248201527f46756c6c4d6174683a2046554c4c4449565f4f564552464c4f57000000000000604482015290519081900360640190fd5b610bdc838387610e35565b93505050505b9392505050565b6000811580610c0457505080820282828281610c0157fe5b04145b610c55576040805162461bcd60e51b815260206004820152601460248201527f64732d6d6174682d6d756c2d6f766572666c6f77000000000000000000000000604482015290519081900360640190fd5b92915050565b600081610c6a57506000610dab565b8160017001000000000000000000000000000000008210610c905760809190911c9060401b5b680100000000000000008210610cab5760409190911c9060201b5b6401000000008210610cc25760209190911c9060101b5b620100008210610cd75760109190911c9060081b5b6101008210610ceb5760089190911c9060041b5b60108210610cfe5760049190911c9060021b5b60088210610d0a5760011b5b6001818581610d1557fe5b048201901c90506001818581610d2757fe5b048201901c90506001818581610d3957fe5b048201901c90506001818581610d4b57fe5b048201901c90506001818581610d5d57fe5b048201901c90506001818581610d6f57fe5b048201901c90506001818581610d8157fe5b048201901c90506000818581610d9357fe5b049050808210610da35780610da5565b815b93505050505b919050565b80820382811115610c55576040805162461bcd60e51b815260206004820152601560248201527f64732d6d6174682d7375622d756e646572666c6f770000000000000000000000604482015290519081900360640190fd5b6000808060001984860990508385029250828103915082811015610e2d576001820391505b509250929050565b60008181038216808381610e4557fe5b049250808581610e5157fe5b049450808160000381610e6057fe5b6002858103808702820302808702820302808702820302808702820302808702820302808702820302958602900390940293046001019390930293909301029291505056fe4e6576656c6c7573537761704c6962726172793a204944454e544943414c5f4144445245535345535472616e7366657248656c7065723a3a7472616e7366657246726f6d3a207472616e7366657246726f6d206661696c65645472616e7366657248656c7065723a3a73616665417070726f76653a20617070726f7665206661696c65644578616d706c6553776170546f50726963653a205a45524f5f414d4f554e545f494e4e6576656c6c7573537761704c6962726172793a205a45524f5f41444452455353a2646970667358221220fb32610aeb3a5bc3dd1d804617a1ce4a22556f75133525a63ff4421ff610af8e64736f6c634300060c0033",
  "immutableReferences": {
    "6586": [
      {
        "length": 32,
        "start": 603
      },
      {
        "length": 32,
        "start": 766
      },
      {
        "length": 32,
        "start": 1226
      }
    ],
    "6588": [
      {
        "length": 32,
        "start": 401
      },
      {
        "length": 32,
        "start": 1190
      }
    ]
  },
  "source": "// SPDX-License-Identifier: GPL-3.0\n\npragma solidity =0.6.12;\n\nimport '@nevellusswap/v2-core/contracts/interfaces/INevellusSwapPair.sol';\nimport '@nevellusswap/lib/contracts/libraries/Babylonian.sol';\nimport '@nevellusswap/lib/contracts/libraries/TransferHelper.sol';\n\nimport '../libraries/NevellusSwapLiquidityMathLibrary.sol';\nimport '../interfaces/IERC20.sol';\nimport '../interfaces/INevellusSwapRouter01.sol';\nimport '../libraries/SafeMathNevellus.sol';\nimport '../libraries/NevellusSwapLibrary.sol';\n\ncontract ExampleSwapToPrice {\n    using SafeMathNevellus for uint256;\n\n    INevellusSwapRouter01 public immutable router;\n    address public immutable factory;\n\n    constructor(address factory_, INevellusSwapRouter01 router_) public {\n        factory = factory_;\n        router = router_;\n    }\n\n    // swaps an amount of either token such that the trade is profit-maximizing, given an external true price\n    // true price is expressed in the ratio of token A to token B\n    // caller must approve this contract to spend whichever token is intended to be swapped\n    function swapToPrice(\n        address tokenA,\n        address tokenB,\n        uint256 truePriceTokenA,\n        uint256 truePriceTokenB,\n        uint256 maxSpendTokenA,\n        uint256 maxSpendTokenB,\n        address to,\n        uint256 deadline\n    ) public {\n        // true price is expressed as a ratio, so both values must be non-zero\n        require(truePriceTokenA != 0 && truePriceTokenB != 0, \"ExampleSwapToPrice: ZERO_PRICE\");\n        // caller can specify 0 for either if they wish to swap in only one direction, but not both\n        require(maxSpendTokenA != 0 || maxSpendTokenB != 0, \"ExampleSwapToPrice: ZERO_SPEND\");\n\n        bool aToB;\n        uint256 amountIn;\n        {\n            (uint256 reserveA, uint256 reserveB) = NevellusSwapLibrary.getReserves(factory, tokenA, tokenB);\n            (aToB, amountIn) = NevellusSwapLiquidityMathLibrary.computeProfitMaximizingTrade(\n                truePriceTokenA, truePriceTokenB,\n                reserveA, reserveB\n            );\n        }\n\n        require(amountIn > 0, 'ExampleSwapToPrice: ZERO_AMOUNT_IN');\n\n        // spend up to the allowance of the token in\n        uint256 maxSpend = aToB ? maxSpendTokenA : maxSpendTokenB;\n        if (amountIn > maxSpend) {\n            amountIn = maxSpend;\n        }\n\n        address tokenIn = aToB ? tokenA : tokenB;\n        address tokenOut = aToB ? tokenB : tokenA;\n        TransferHelper.safeTransferFrom(tokenIn, msg.sender, address(this), amountIn);\n        TransferHelper.safeApprove(tokenIn, address(router), amountIn);\n\n        address[] memory path = new address[](2);\n        path[0] = tokenIn;\n        path[1] = tokenOut;\n\n        router.swapExactTokensForTokens(\n            amountIn,\n            0, // amountOutMin: we can skip computing this number because the math is tested\n            path,\n            to,\n            deadline\n        );\n    }\n}\n",
  "sourcePath": "C:\\Users\\ferna\\Desktop\\Projects\\Beta Projects\\From Start\\nevellusswap-periphery\\contracts\\examples\\ExampleSwapToPrice.sol",
  "compiler": {
    "name": "solc",
    "version": "0.6.12+commit.27d51765.Emscripten.clang"
  },
  "schemaVersion": "3.4.8",
  "updatedAt": "2022-09-30T05:10:26.940Z",
  "devdoc": {
    "kind": "dev",
    "methods": {},
    "version": 1
  },
  "userdoc": {
    "kind": "user",
    "methods": {},
    "version": 1
  }
}