{
  "contractName": "ExampleComputeLiquidityValue",
  "abi": [
    {
      "inputs": [
        {
          "internalType": "address",
          "name": "factory_",
          "type": "address"
        }
      ],
      "stateMutability": "nonpayable",
      "type": "constructor"
    },
    {
      "inputs": [],
      "name": "factory",
      "outputs": [
        {
          "internalType": "address",
          "name": "",
          "type": "address"
        }
      ],
      "stateMutability": "view",
      "type": "function"
    },
    {
      "inputs": [
        {
          "internalType": "address",
          "name": "tokenA",
          "type": "address"
        },
        {
          "internalType": "address",
          "name": "tokenB",
          "type": "address"
        },
        {
          "internalType": "uint256",
          "name": "truePriceTokenA",
          "type": "uint256"
        },
        {
          "internalType": "uint256",
          "name": "truePriceTokenB",
          "type": "uint256"
        }
      ],
      "name": "getReservesAfterArbitrage",
      "outputs": [
        {
          "internalType": "uint256",
          "name": "reserveA",
          "type": "uint256"
        },
        {
          "internalType": "uint256",
          "name": "reserveB",
          "type": "uint256"
        }
      ],
      "stateMutability": "view",
      "type": "function"
    },
    {
      "inputs": [
        {
          "internalType": "address",
          "name": "tokenA",
          "type": "address"
        },
        {
          "internalType": "address",
          "name": "tokenB",
          "type": "address"
        },
        {
          "internalType": "uint256",
          "name": "liquidityAmount",
          "type": "uint256"
        }
      ],
      "name": "getLiquidityValue",
      "outputs": [
        {
          "internalType": "uint256",
          "name": "tokenAAmount",
          "type": "uint256"
        },
        {
          "internalType": "uint256",
          "name": "tokenBAmount",
          "type": "uint256"
        }
      ],
      "stateMutability": "view",
      "type": "function"
    },
    {
      "inputs": [
        {
          "internalType": "address",
          "name": "tokenA",
          "type": "address"
        },
        {
          "internalType": "address",
          "name": "tokenB",
          "type": "address"
        },
        {
          "internalType": "uint256",
          "name": "truePriceTokenA",
          "type": "uint256"
        },
        {
          "internalType": "uint256",
          "name": "truePriceTokenB",
          "type": "uint256"
        },
        {
          "internalType": "uint256",
          "name": "liquidityAmount",
          "type": "uint256"
        }
      ],
      "name": "getLiquidityValueAfterArbitrageToPrice",
      "outputs": [
        {
          "internalType": "uint256",
          "name": "tokenAAmount",
          "type": "uint256"
        },
        {
          "internalType": "uint256",
          "name": "tokenBAmount",
          "type": "uint256"
        }
      ],
      "stateMutability": "view",
      "type": "function"
    },
    {
      "inputs": [
        {
          "internalType": "address",
          "name": "tokenA",
          "type": "address"
        },
        {
          "internalType": "address",
          "name": "tokenB",
          "type": "address"
        },
        {
          "internalType": "uint256",
          "name": "truePriceTokenA",
          "type": "uint256"
        },
        {
          "internalType": "uint256",
          "name": "truePriceTokenB",
          "type": "uint256"
        },
        {
          "internalType": "uint256",
          "name": "liquidityAmount",
          "type": "uint256"
        }
      ],
      "name": "getGasCostOfGetLiquidityValueAfterArbitrageToPrice",
      "outputs": [
        {
          "internalType": "uint256",
          "name": "",
          "type": "uint256"
        }
      ],
      "stateMutability": "view",
      "type": "function"
    }
  ],
  "bytecode": "0x60a060405234801561001057600080fd5b506040516111663803806111668339818101604052602081101561003357600080fd5b5051606081901b6001600160601b0319166080526001600160a01b03166110eb61007b600039806101b952806101f7528061023a528061027852806102a252506110eb6000f3fe608060405234801561001057600080fd5b50600436106100675760003560e01c806380caa3531161005057806380caa35314610103578063c45a015514610157578063d9b7a6e71461017b57610067565b80633558e94c1461006c57806369a2fcbd146100c1575b600080fd5b6100a86004803603608081101561008257600080fd5b506001600160a01b038135811691602081013590911690604081013590606001356101b1565b6040805192835260208301919091528051918290030190f35b6100a8600480360360a08110156100d757600080fd5b506001600160a01b038135811691602081013590911690604081013590606081013590608001356101ef565b610145600480360360a081101561011957600080fd5b506001600160a01b0381358116916020810135909116906040810135906060810135906080013561022f565b60408051918252519081900360200190f35b61015f610276565b604080516001600160a01b039092168252519081900360200190f35b6100a86004803603606081101561019157600080fd5b506001600160a01b0381358116916020810135909116906040013561029a565b6000806101e17f0000000000000000000000000000000000000000000000000000000000000000878787876102d5565b915091505b94509492505050565b6000806102207f00000000000000000000000000000000000000000000000000000000000000008888888888610399565b915091505b9550959350505050565b6000805a90506102637f00000000000000000000000000000000000000000000000000000000000000008888888888610399565b505060005a909103979650505050505050565b7f000000000000000000000000000000000000000000000000000000000000000081565b6000806102c97f000000000000000000000000000000000000000000000000000000000000000086868661058a565b91509150935093915050565b6000806102e387878761072c565b909250905081158015906102f75750600081115b6103325760405162461bcd60e51b815260040180806020018281038252603081526020018061103e6030913960400191505060405180910390fd5b600080610341868686866107fa565b915091508060001415610355575050610225565b81156103765760006103688286866108c0565b94820194909303925061038d565b60006103838285876108c0565b9094039350918201915b50509550959350505050565b6000806000806001600160a01b0316896001600160a01b031663017e7e586040518163ffffffff1660e01b815260040160206040518083038186803b1580156103e157600080fd5b505afa1580156103f5573d6000803e3d6000fd5b505050506040513d602081101561040b57600080fd5b50516001600160a01b03161415905060006104278a8a8a610998565b905060008261043757600061049d565b816001600160a01b0316637464fc3d6040518163ffffffff1660e01b815260040160206040518083038186803b15801561047057600080fd5b505afa158015610484573d6000803e3d6000fd5b505050506040513d602081101561049a57600080fd5b50515b90506000826001600160a01b03166318160ddd6040518163ffffffff1660e01b815260040160206040518083038186803b1580156104da57600080fd5b505afa1580156104ee573d6000803e3d6000fd5b505050506040513d602081101561050457600080fd5b505190508681108015906105185750600087115b6105535760405162461bcd60e51b815260040180806020018281038252602781526020018061106e6027913960400191505060405180910390fd5b6000806105638e8e8e8e8e6102d5565b915091506105758282858c8a89610a70565b97509750505050505050965096945050505050565b60008060008061059b88888861072c565b9150915060006105ac898989610998565b90506000806001600160a01b03168a6001600160a01b031663017e7e586040518163ffffffff1660e01b815260040160206040518083038186803b1580156105f357600080fd5b505afa158015610607573d6000803e3d6000fd5b505050506040513d602081101561061d57600080fd5b50516001600160a01b03161415905060008161063a5760006106a0565b826001600160a01b0316637464fc3d6040518163ffffffff1660e01b815260040160206040518083038186803b15801561067357600080fd5b505afa158015610687573d6000803e3d6000fd5b505050506040513d602081101561069d57600080fd5b50515b90506000836001600160a01b03166318160ddd6040518163ffffffff1660e01b815260040160206040518083038186803b1580156106dd57600080fd5b505afa1580156106f1573d6000803e3d6000fd5b505050506040513d602081101561070757600080fd5b505190506107198686838c8787610a70565b9750975050505050505094509492505050565b600080600061073b8585610b25565b50905060008061074c888888610998565b6001600160a01b0316630902f1ac6040518163ffffffff1660e01b815260040160606040518083038186803b15801561078457600080fd5b505afa158015610798573d6000803e3d6000fd5b505050506040513d60608110156107ae57600080fd5b5080516020909101516dffffffffffffffffffffffffffff91821693501690506001600160a01b03878116908416146107e85780826107eb565b81815b90999098509650505050505050565b60008085610809858786610bed565b10915060006108188585610ca8565b9050600061085e61085961082e846103e8610ca8565b86610839578961083b565b8a5b6108546103e58961084c578d61084e565b8c5b90610ca8565b610bed565b610d1a565b905060006103e58561087b57610876876103e8610ca8565b610887565b610887886103e8610ca8565b8161088e57fe5b049050808210156108a857600080945094505050506101e6565b6108b28282610e6f565b935050505094509492505050565b60008084116109005760405162461bcd60e51b815260040180806020018281038252602e815260200180610fe5602e913960400191505060405180910390fd5b6000831180156109105750600082115b61094b5760405162461bcd60e51b815260040180806020018281038252602b815260200180611013602b913960400191505060405180910390fd5b6000610959856103e5610ca8565b905060006109678285610ca8565b905060006109818361097b886103e8610ca8565b90610ec7565b905080828161098c57fe5b04979650505050505050565b60008060006109a78585610b25565b604080516bffffffffffffffffffffffff19606094851b811660208084019190915293851b81166034830152825160288184030181526048830184528051908501207fff0000000000000000000000000000000000000000000000000000000000000060688401529a90941b9093166069840152607d8301989098527f203da0c96d114b30e9c823d04417bd8f29e3316d48d5caf137ccd694b67cc254609d808401919091528851808403909101815260bd909201909752805196019590952095945050505050565b600080838015610a805750600083115b15610af0576000610a946108598a8a610ca8565b90506000610aa185610d1a565b905080821115610aed57876000610ab88484610e6f565b90506000610acb8461097b876005610ca8565b90506000610ada848484610bed565b9050610ae68c82610ec7565b9b50505050505b50505b85610afb8987610ca8565b81610b0257fe5b0486610b0e8988610ca8565b81610b1557fe5b0491509150965096945050505050565b600080826001600160a01b0316846001600160a01b03161415610b795760405162461bcd60e51b8152600401808060200182810382526028815260200180610fbd6028913960400191505060405180910390fd5b826001600160a01b0316846001600160a01b031610610b99578284610b9c565b83835b90925090506001600160a01b038216610be65760405162461bcd60e51b81526004018080602001828103825260218152602001806110956021913960400191505060405180910390fd5b9250929050565b6000806000610bfc8686610f1f565b9150915060008480610c0a57fe5b868809905082811115610c1e576001820391505b918290039181610c3c57848381610c3157fe5b049350505050610ca1565b848210610c90576040805162461bcd60e51b815260206004820152601a60248201527f46756c6c4d6174683a2046554c4c4449565f4f564552464c4f57000000000000604482015290519081900360640190fd5b610c9b838387610f4c565b93505050505b9392505050565b6000811580610cc357505080820282828281610cc057fe5b04145b610d14576040805162461bcd60e51b815260206004820152601460248201527f64732d6d6174682d6d756c2d6f766572666c6f77000000000000000000000000604482015290519081900360640190fd5b92915050565b600081610d2957506000610e6a565b8160017001000000000000000000000000000000008210610d4f5760809190911c9060401b5b680100000000000000008210610d6a5760409190911c9060201b5b6401000000008210610d815760209190911c9060101b5b620100008210610d965760109190911c9060081b5b6101008210610daa5760089190911c9060041b5b60108210610dbd5760049190911c9060021b5b60088210610dc95760011b5b6001818581610dd457fe5b048201901c90506001818581610de657fe5b048201901c90506001818581610df857fe5b048201901c90506001818581610e0a57fe5b048201901c90506001818581610e1c57fe5b048201901c90506001818581610e2e57fe5b048201901c90506001818581610e4057fe5b048201901c90506000818581610e5257fe5b049050808210610e625780610e64565b815b93505050505b919050565b80820382811115610d14576040805162461bcd60e51b815260206004820152601560248201527f64732d6d6174682d7375622d756e646572666c6f770000000000000000000000604482015290519081900360640190fd5b80820182811015610d14576040805162461bcd60e51b815260206004820152601460248201527f64732d6d6174682d6164642d6f766572666c6f77000000000000000000000000604482015290519081900360640190fd5b6000808060001984860990508385029250828103915082811015610f44576001820391505b509250929050565b60008181038216808381610f5c57fe5b049250808581610f6857fe5b049450808160000381610f7757fe5b6002858103808702820302808702820302808702820302808702820302808702820302808702820302958602900390940293046001019390930293909301029291505056fe4e6576656c6c7573537761704c6962726172793a204944454e544943414c5f4144445245535345534e6576656c6c7573537761704c6962726172793a20494e53554646494349454e545f494e5055545f414d4f554e544e6576656c6c7573537761704c6962726172793a20494e53554646494349454e545f4c49515549444954594e6576656c6c7573537761704172626974726167654c6962726172793a205a45524f5f504149525f5245534552564553436f6d707574654c697175696469747956616c75653a204c49515549444954595f414d4f554e544e6576656c6c7573537761704c6962726172793a205a45524f5f41444452455353a2646970667358221220ddbcf267ad69f91407ace522e782defa4a560031bd3a687fc31f515a89aba87064736f6c634300060c0033",
  "immutableReferences": {
    "5493": [
      {
        "length": 32,
        "start": 441
      },
      {
        "length": 32,
        "start": 503
      },
      {
        "length": 32,
        "start": 570
      },
      {
        "length": 32,
        "start": 632
      },
      {
        "length": 32,
        "start": 674
      }
    ]
  },
  "source": "// SPDX-License-Identifier: GPL-3.0\n\npragma solidity =0.6.12;\n\nimport '../libraries/NevellusSwapLiquidityMathLibrary.sol';\n\ncontract ExampleComputeLiquidityValue {\n    using SafeMathNevellus for uint256;\n\n    address public immutable factory;\n\n    constructor(address factory_) public {\n        factory = factory_;\n    }\n\n    // see NevellusSwapLiquidityMathLibrary#getReservesAfterArbitrage\n    function getReservesAfterArbitrage(\n        address tokenA,\n        address tokenB,\n        uint256 truePriceTokenA,\n        uint256 truePriceTokenB\n    ) external view returns (uint256 reserveA, uint256 reserveB) {\n        return NevellusSwapLiquidityMathLibrary.getReservesAfterArbitrage(\n            factory,\n            tokenA,\n            tokenB,\n            truePriceTokenA,\n            truePriceTokenB\n        );\n    }\n\n    // see NevellusSwapLiquidityMathLibrary#getLiquidityValue\n    function getLiquidityValue(\n        address tokenA,\n        address tokenB,\n        uint256 liquidityAmount\n    ) external view returns (\n        uint256 tokenAAmount,\n        uint256 tokenBAmount\n    ) {\n        return NevellusSwapLiquidityMathLibrary.getLiquidityValue(\n            factory,\n            tokenA,\n            tokenB,\n            liquidityAmount\n        );\n    }\n\n    // see NevellusSwapLiquidityMathLibrary#getLiquidityValueAfterArbitrageToPrice\n    function getLiquidityValueAfterArbitrageToPrice(\n        address tokenA,\n        address tokenB,\n        uint256 truePriceTokenA,\n        uint256 truePriceTokenB,\n        uint256 liquidityAmount\n    ) external view returns (\n        uint256 tokenAAmount,\n        uint256 tokenBAmount\n    ) {\n        return NevellusSwapLiquidityMathLibrary.getLiquidityValueAfterArbitrageToPrice(\n            factory,\n            tokenA,\n            tokenB,\n            truePriceTokenA,\n            truePriceTokenB,\n            liquidityAmount\n        );\n    }\n\n    // test function to measure the gas cost of the above function\n    function getGasCostOfGetLiquidityValueAfterArbitrageToPrice(\n        address tokenA,\n        address tokenB,\n        uint256 truePriceTokenA,\n        uint256 truePriceTokenB,\n        uint256 liquidityAmount\n    ) external view returns (\n        uint256\n    ) {\n        uint gasBefore = gasleft();\n        NevellusSwapLiquidityMathLibrary.getLiquidityValueAfterArbitrageToPrice(\n            factory,\n            tokenA,\n            tokenB,\n            truePriceTokenA,\n            truePriceTokenB,\n            liquidityAmount\n        );\n        uint gasAfter = gasleft();\n        return gasBefore - gasAfter;\n    }\n}\n",
  "sourcePath": "C:\\Users\\ferna\\Desktop\\Projects\\Beta Projects\\From Start\\nevellusswap-periphery\\contracts\\examples\\ExampleComputeLiquidityValue.sol",
  "compiler": {
    "name": "solc",
    "version": "0.6.12+commit.27d51765.Emscripten.clang"
  },
  "schemaVersion": "3.4.8",
  "updatedAt": "2022-09-30T05:10:26.921Z",
  "devdoc": {
    "kind": "dev",
    "methods": {},
    "version": 1
  },
  "userdoc": {
    "kind": "user",
    "methods": {},
    "version": 1
  }
}