{
  "contractName": "ExampleFlashSwap",
  "abi": [
    {
      "inputs": [
        {
          "internalType": "address",
          "name": "_factory",
          "type": "address"
        },
        {
          "internalType": "address",
          "name": "_factoryV1",
          "type": "address"
        },
        {
          "internalType": "address",
          "name": "router",
          "type": "address"
        }
      ],
      "stateMutability": "nonpayable",
      "type": "constructor"
    },
    {
      "stateMutability": "payable",
      "type": "receive"
    },
    {
      "inputs": [
        {
          "internalType": "address",
          "name": "sender",
          "type": "address"
        },
        {
          "internalType": "uint256",
          "name": "amount0",
          "type": "uint256"
        },
        {
          "internalType": "uint256",
          "name": "amount1",
          "type": "uint256"
        },
        {
          "internalType": "bytes",
          "name": "data",
          "type": "bytes"
        }
      ],
      "name": "nevellusSwapCall",
      "outputs": [],
      "stateMutability": "nonpayable",
      "type": "function"
    }
  ],
  "bytecode": "0x60e060405234801561001057600080fd5b506040516112ba3803806112ba8339818101604052606081101561003357600080fd5b5080516020808301516040938401516001600160601b0319606083811b821660805285901b1660a05284516315ab88c960e31b815294519394919390926001600160a01b0384169263ad5c46489260048083019392829003018186803b15801561009c57600080fd5b505afa1580156100b0573d6000803e3d6000fd5b505050506040513d60208110156100c657600080fd5b50516001600160601b031960609190911b1660c05250505060805160601c60a05160601c60c05160601c61117a6101406000398061029352806102c8528061030d528061035c52806103ae528061066d528061070352806108985250806101dc5280610626528061098052508061042f525061117a6000f3fe6080604052600436106100225760003560e01c80637ac2deee1461002e57610029565b3661002957005b600080fd5b34801561003a57600080fd5b506100c76004803603608081101561005157600080fd5b6001600160a01b03823516916020810135916040820135919081019060808101606082013564010000000081111561008857600080fd5b82018360208201111561009a57600080fd5b803590602001918460018302840111640100000000831117156100bc57600080fd5b5090925090506100c9565b005b60408051600280825260608083018452926020830190803683370190505090506000806000336001600160a01b0316630dfe16816040518163ffffffff1660e01b815260040160206040518083038186803b15801561012757600080fd5b505afa15801561013b573d6000803e3d6000fd5b505050506040513d602081101561015157600080fd5b5051604080517fd21220a70000000000000000000000000000000000000000000000000000000081529051919250600091339163d21220a7916004808301926020929190829003018186803b1580156101a957600080fd5b505afa1580156101bd573d6000803e3d6000fd5b505050506040513d60208110156101d357600080fd5b505190506102027f00000000000000000000000000000000000000000000000000000000000000008383610ae1565b6001600160a01b0316336001600160a01b03161461021c57fe5b881580610227575087155b61022d57fe5b8815610239578061023b565b815b8560008151811061024857fe5b6001600160a01b0390921660209283029190910190910152881561026c578161026e565b805b8560018151811061027b57fe5b6001600160a01b0392831660209182029290920101527f00000000000000000000000000000000000000000000000000000000000000008116908316146102c257886102c4565b875b93507f00000000000000000000000000000000000000000000000000000000000000006001600160a01b0316826001600160a01b0316146103055787610307565b885b925050507f00000000000000000000000000000000000000000000000000000000000000006001600160a01b03168360008151811061034257fe5b60200260200101516001600160a01b031614806103a457507f00000000000000000000000000000000000000000000000000000000000000006001600160a01b03168360018151811061039157fe5b60200260200101516001600160a01b0316145b6103aa57fe5b60007f00000000000000000000000000000000000000000000000000000000000000006001600160a01b0316846000815181106103e357fe5b60200260200101516001600160a01b031614610413578360008151811061040657fe5b6020026020010151610429565b8360018151811061042057fe5b60200260200101515b905060007f00000000000000000000000000000000000000000000000000000000000000006001600160a01b03166306f2bf62836040518263ffffffff1660e01b815260040180826001600160a01b0316815260200191505060206040518083038186803b15801561049a57600080fd5b505afa1580156104ae573d6000803e3d6000fd5b505050506040513d60208110156104c457600080fd5b505190508315610847576000878760208110156104e057600080fd5b50604080517f095ea7b30000000000000000000000000000000000000000000000000000000081526001600160a01b038581166004830152602482018990529151923593509085169163095ea7b3916044808201926020929091908290030181600087803b15801561055157600080fd5b505af1158015610565573d6000803e3d6000fd5b505050506040513d602081101561057b57600080fd5b5050604080517f95e3c50b0000000000000000000000000000000000000000000000000000000081526004810187905260248101839052600019604482015290516000916001600160a01b038516916395e3c50b9160648082019260209290919082900301818787803b1580156105f157600080fd5b505af1158015610605573d6000803e3d6000fd5b505050506040513d602081101561061b57600080fd5b50519050600061064c7f0000000000000000000000000000000000000000000000000000000000000000888a610bb9565b60008151811061065857fe5b6020026020010151905080821161066b57fe5b7f00000000000000000000000000000000000000000000000000000000000000006001600160a01b031663d0e30db0826040518263ffffffff1660e01b81526004016000604051808303818588803b1580156106c657600080fd5b505af11580156106da573d6000803e3d6000fd5b50506040805163a9059cbb60e01b81523360048201526024810186905290516001600160a01b037f000000000000000000000000000000000000000000000000000000000000000016945063a9059cbb9350604480830193506020928290030181600087803b15801561074c57600080fd5b505af1158015610760573d6000803e3d6000fd5b505050506040513d602081101561077657600080fd5b505161077e57fe5b604080516000808252602082019092526001600160a01b038f1690838503906040518082805190602001908083835b602083106107cc5780518252601f1990920191602091820191016107ad565b6001836020036101000a03801982511681845116808217855250505050505090500191505060006040518083038185875af1925050503d806000811461082e576040519150601f19603f3d011682016040523d82523d6000602084013e610833565b606091505b505090508061083e57fe5b50505050610ad5565b60008787602081101561085957600080fd5b50604080517f2e1a7d4d000000000000000000000000000000000000000000000000000000008152600481018790529051913592506001600160a01b037f00000000000000000000000000000000000000000000000000000000000000001691632e1a7d4d9160248082019260009290919082900301818387803b1580156108e057600080fd5b505af11580156108f4573d6000803e3d6000fd5b505050506000826001600160a01b031663f39b5b9b86846000196040518463ffffffff1660e01b815260040180838152602001828152602001925050506020604051808303818588803b15801561094a57600080fd5b505af115801561095e573d6000803e3d6000fd5b50505050506040513d602081101561097557600080fd5b5051905060006109a67f0000000000000000000000000000000000000000000000000000000000000000878a610bb9565b6000815181106109b257fe5b602002602001015190508082116109c557fe5b6040805163a9059cbb60e01b81523360048201526024810183905290516001600160a01b0387169163a9059cbb9160448083019260209291908290030181600087803b158015610a1457600080fd5b505af1158015610a28573d6000803e3d6000fd5b505050506040513d6020811015610a3e57600080fd5b5051610a4657fe5b846001600160a01b031663a9059cbb8e8385036040518363ffffffff1660e01b815260040180836001600160a01b0316815260200182815260200192505050602060405180830381600087803b158015610a9f57600080fd5b505af1158015610ab3573d6000803e3d6000fd5b505050506040513d6020811015610ac957600080fd5b5051610ad157fe5b5050505b50505050505050505050565b6000806000610af08585610cf0565b604080516bffffffffffffffffffffffff19606094851b811660208084019190915293851b81166034830152825160288184030181526048830184528051908501207fff0000000000000000000000000000000000000000000000000000000000000060688401529a90941b9093166069840152607d8301989098527f203da0c96d114b30e9c823d04417bd8f29e3316d48d5caf137ccd694b67cc254609d808401919091528851808403909101815260bd909201909752805196019590952095945050505050565b6060600282511015610bfc5760405162461bcd60e51b81526004018080602001828103825260218152602001806110816021913960400191505060405180910390fd5b815167ffffffffffffffff81118015610c1457600080fd5b50604051908082528060200260200182016040528015610c3e578160200160208202803683370190505b5090508281600183510381518110610c5257fe5b60209081029190910101528151600019015b8015610ce857600080610ca187866001860381518110610c8057fe5b6020026020010151878681518110610c9457fe5b6020026020010151610db8565b91509150610cc3848481518110610cb457fe5b60200260200101518383610e86565b846001850381518110610cd257fe5b6020908102919091010152505060001901610c64565b509392505050565b600080826001600160a01b0316846001600160a01b03161415610d445760405162461bcd60e51b81526004018080602001828103825260288152602001806110a26028913960400191505060405180910390fd5b826001600160a01b0316846001600160a01b031610610d64578284610d67565b83835b90925090506001600160a01b038216610db15760405162461bcd60e51b81526004018080602001828103825260218152602001806111246021913960400191505060405180910390fd5b9250929050565b6000806000610dc78585610cf0565b509050600080610dd8888888610ae1565b6001600160a01b0316630902f1ac6040518163ffffffff1660e01b815260040160606040518083038186803b158015610e1057600080fd5b505afa158015610e24573d6000803e3d6000fd5b505050506040513d6060811015610e3a57600080fd5b5080516020909101516dffffffffffffffffffffffffffff91821693501690506001600160a01b0387811690841614610e74578082610e77565b81815b90999098509650505050505050565b6000808411610ec65760405162461bcd60e51b815260040180806020018281038252602f8152602001806110f5602f913960400191505060405180910390fd5b600083118015610ed65750600082115b610f115760405162461bcd60e51b815260040180806020018281038252602b8152602001806110ca602b913960400191505060405180910390fd5b6000610f296103e8610f238688610f5e565b90610f5e565b90506000610f3d6103e5610f238689610fd0565b9050610f546001828481610f4d57fe5b0490611028565b9695505050505050565b6000811580610f7957505080820282828281610f7657fe5b04145b610fca576040805162461bcd60e51b815260206004820152601460248201527f64732d6d6174682d6d756c2d6f766572666c6f77000000000000000000000000604482015290519081900360640190fd5b92915050565b80820382811115610fca576040805162461bcd60e51b815260206004820152601560248201527f64732d6d6174682d7375622d756e646572666c6f770000000000000000000000604482015290519081900360640190fd5b80820182811015610fca576040805162461bcd60e51b815260206004820152601460248201527f64732d6d6174682d6164642d6f766572666c6f77000000000000000000000000604482015290519081900360640190fdfe4e6576656c6c7573537761704c6962726172793a20494e56414c49445f504154484e6576656c6c7573537761704c6962726172793a204944454e544943414c5f4144445245535345534e6576656c6c7573537761704c6962726172793a20494e53554646494349454e545f4c49515549444954594e6576656c6c7573537761704c6962726172793a20494e53554646494349454e545f4f55545055545f414d4f554e544e6576656c6c7573537761704c6962726172793a205a45524f5f41444452455353a264697066735822122071c1bdd279be3ee589ac93f090aeb4614ba89b9a4fc4037f5108e06549dc128c64736f6c634300060c0033",
  "immutableReferences": {
    "5633": [
      {
        "length": 32,
        "start": 1071
      }
    ],
    "5635": [
      {
        "length": 32,
        "start": 476
      },
      {
        "length": 32,
        "start": 1574
      },
      {
        "length": 32,
        "start": 2432
      }
    ],
    "5637": [
      {
        "length": 32,
        "start": 659
      },
      {
        "length": 32,
        "start": 712
      },
      {
        "length": 32,
        "start": 781
      },
      {
        "length": 32,
        "start": 860
      },
      {
        "length": 32,
        "start": 942
      },
      {
        "length": 32,
        "start": 1645
      },
      {
        "length": 32,
        "start": 1795
      },
      {
        "length": 32,
        "start": 2200
      }
    ]
  },
  "source": "// SPDX-License-Identifier: GPL-3.0\n\npragma solidity =0.6.12;\n\nimport '@nevellusswap/v2-core/contracts/interfaces/INevellusSwapCallee.sol';\n\nimport '../libraries/NevellusSwapLibrary.sol';\nimport '../interfaces/V1/INevellusSwapV1Factory.sol';\nimport '../interfaces/V1/INevellusSwapV1Exchange.sol';\nimport '../interfaces/INevellusSwapRouter01.sol';\nimport '../interfaces/IERC20.sol';\nimport '../interfaces/IWETH.sol';\n\ncontract ExampleFlashSwap is INevellusSwapCallee {\n    INevellusSwapV1Factory immutable factoryV1;\n    address immutable factory;\n    IWETH immutable WETH;\n\n    constructor(address _factory, address _factoryV1, address router) public {\n        factoryV1 = INevellusSwapV1Factory(_factoryV1);\n        factory = _factory;\n        WETH = IWETH(INevellusSwapRouter01(router).WETH());\n    }\n\n    // needs to accept ETH from any V1 exchange and WETH. ideally this could be enforced, as in the router,\n    // but it's not possible because it requires a call to the v1 factory, which takes too much gas\n    receive() external payable {}\n\n    // gets tokens/WETH via a V2 flash swap, swaps for the ETH/tokens on V1, repays V2, and keeps the rest!\n    function nevellusSwapCall(address sender, uint amount0, uint amount1, bytes calldata data) external override {\n        address[] memory path = new address[](2);\n        uint amountToken;\n        uint amountETH;\n        { // scope for token{0,1}, avoids stack too deep errors\n        address token0 = INevellusSwapPair(msg.sender).token0();\n        address token1 = INevellusSwapPair(msg.sender).token1();\n        assert(msg.sender == NevellusSwapLibrary.pairFor(factory, token0, token1)); // ensure that msg.sender is actually a V2 pair\n        assert(amount0 == 0 || amount1 == 0); // this strategy is unidirectional\n        path[0] = amount0 == 0 ? token0 : token1;\n        path[1] = amount0 == 0 ? token1 : token0;\n        amountToken = token0 == address(WETH) ? amount1 : amount0;\n        amountETH = token0 == address(WETH) ? amount0 : amount1;\n        }\n\n        assert(path[0] == address(WETH) || path[1] == address(WETH)); // this strategy only works with a V2 WETH pair\n        IERC20 token = IERC20(path[0] == address(WETH) ? path[1] : path[0]);\n        INevellusSwapV1Exchange exchangeV1 = INevellusSwapV1Exchange(factoryV1.getExchange(address(token))); // get V1 exchange\n\n        if (amountToken > 0) {\n            (uint minETH) = abi.decode(data, (uint)); // slippage parameter for V1, passed in by caller\n            token.approve(address(exchangeV1), amountToken);\n            uint amountReceived = exchangeV1.tokenToEthSwapInput(amountToken, minETH, uint(-1));\n            uint amountRequired = NevellusSwapLibrary.getAmountsIn(factory, amountToken, path)[0];\n            assert(amountReceived > amountRequired); // fail if we didn't get enough ETH back to repay our flash loan\n            WETH.deposit{value: amountRequired}();\n            assert(WETH.transfer(msg.sender, amountRequired)); // return WETH to V2 pair\n            (bool success,) = sender.call{value: amountReceived - amountRequired}(new bytes(0)); // keep the rest! (ETH)\n            assert(success);\n        } else {\n            (uint minTokens) = abi.decode(data, (uint)); // slippage parameter for V1, passed in by caller\n            WETH.withdraw(amountETH);\n            uint amountReceived = exchangeV1.ethToTokenSwapInput{value: amountETH}(minTokens, uint(-1));\n            uint amountRequired = NevellusSwapLibrary.getAmountsIn(factory, amountETH, path)[0];\n            assert(amountReceived > amountRequired); // fail if we didn't get enough tokens back to repay our flash loan\n            assert(token.transfer(msg.sender, amountRequired)); // return tokens to V2 pair\n            assert(token.transfer(sender, amountReceived - amountRequired)); // keep the rest! (tokens)\n        }\n    }\n}\n",
  "sourcePath": "C:\\Users\\ferna\\Desktop\\Projects\\Beta Projects\\From Start\\nevellusswap-periphery\\contracts\\examples\\ExampleFlashSwap.sol",
  "compiler": {
    "name": "solc",
    "version": "0.6.12+commit.27d51765.Emscripten.clang"
  },
  "schemaVersion": "3.4.8",
  "updatedAt": "2022-09-30T05:10:26.925Z",
  "devdoc": {
    "kind": "dev",
    "methods": {},
    "version": 1
  },
  "userdoc": {
    "kind": "user",
    "methods": {},
    "version": 1
  }
}